{
  "contractName": "KryptoBird",
  "abi": [
    {
      "inputs": [],
      "stateMutability": "nonpayable",
      "type": "constructor"
    },
    {
      "anonymous": false,
      "inputs": [
        {
          "indexed": false,
          "internalType": "address",
          "name": "from",
          "type": "address"
        },
        {
          "indexed": false,
          "internalType": "address",
          "name": "to",
          "type": "address"
        },
        {
          "indexed": false,
          "internalType": "uint256",
          "name": "tokenId",
          "type": "uint256"
        }
      ],
      "name": "Transfer",
      "type": "event"
    },
    {
      "inputs": [
        {
          "internalType": "uint256",
          "name": "",
          "type": "uint256"
        }
      ],
      "name": "KryptoBirdz",
      "outputs": [
        {
          "internalType": "string",
          "name": "",
          "type": "string"
        }
      ],
      "stateMutability": "view",
      "type": "function",
      "constant": true
    },
    {
      "inputs": [],
      "name": "name",
      "outputs": [
        {
          "internalType": "string",
          "name": "",
          "type": "string"
        }
      ],
      "stateMutability": "view",
      "type": "function",
      "constant": true
    },
    {
      "inputs": [],
      "name": "symbol",
      "outputs": [
        {
          "internalType": "string",
          "name": "",
          "type": "string"
        }
      ],
      "stateMutability": "view",
      "type": "function",
      "constant": true
    },
    {
      "inputs": [
        {
          "internalType": "string",
          "name": "_kryptoBird",
          "type": "string"
        }
      ],
      "name": "mint",
      "outputs": [],
      "stateMutability": "nonpayable",
      "type": "function"
    }
  ],
  "bytecode": "0x60806040523480156200001157600080fd5b506040518060400160405280600a81526020017f4b727970746f42697264000000000000000000000000000000000000000000008152506040518060400160405280600681526020017f4b424952445a00000000000000000000000000000000000000000000000000008152508181816000908051906020019062000098929190620000bc565b508060019080519060200190620000b1929190620000bc565b5050505050620001d0565b828054620000ca906200019b565b90600052602060002090601f016020900481019282620000ee57600085556200013a565b82601f106200010957805160ff19168380011785556200013a565b828001600101855582156200013a579182015b82811115620001395782518255916020019190600101906200011c565b5b5090506200014991906200014d565b5090565b5b80821115620001685760008160009055506001016200014e565b5090565b7f4e487b7100000000000000000000000000000000000000000000000000000000600052602260045260246000fd5b60006002820490506001821680620001b457607f821691505b602082108103620001ca57620001c96200016c565b5b50919050565b610ccb80620001e06000396000f3fe608060405234801561001057600080fd5b506004361061004c5760003560e01c806306fdde031461005157806395d89b411461006f578063a3a1ff581461008d578063d85d3d27146100bd575b600080fd5b6100596100d9565b60405161006691906106fb565b60405180910390f35b61007761016b565b60405161008491906106fb565b60405180910390f35b6100a760048036038101906100a29190610767565b6101fd565b6040516100b491906106fb565b60405180910390f35b6100d760048036038101906100d291906108c9565b6102a9565b005b6060600080546100e890610941565b80601f016020809104026020016040519081016040528092919081815260200182805461011490610941565b80156101615780601f1061013657610100808354040283529160200191610161565b820191906000526020600020905b81548152906001019060200180831161014457829003601f168201915b5050505050905090565b60606001805461017a90610941565b80601f01602080910402602001604051908101604052809291908181526020018280546101a690610941565b80156101f35780601f106101c8576101008083540402835291602001916101f3565b820191906000526020600020905b8154815290600101906020018083116101d657829003601f168201915b5050505050905090565b6004818154811061020d57600080fd5b90600052602060002001600091509050805461022890610941565b80601f016020809104026020016040519081016040528092919081815260200182805461025490610941565b80156102a15780601f10610276576101008083540402835291602001916102a1565b820191906000526020600020905b81548152906001019060200180831161028457829003601f168201915b505050505081565b6005816040516102b991906109ae565b908152602001604051809103902060009054906101000a900460ff1615610315576040517f08c379a000000000000000000000000000000000000000000000000000000000815260040161030c90610a37565b60405180910390fd5b6004819080600181540180825580915050600190039060005260206000200160009091909190915090805190602001906103509291906105bf565b50600060016004805490506103659190610a86565b905061037133826103ac565b600160058360405161038391906109ae565b908152602001604051809103902060006101000a81548160ff0219169083151502179055505050565b600073ffffffffffffffffffffffffffffffffffffffff168273ffffffffffffffffffffffffffffffffffffffff160361041b576040517f08c379a000000000000000000000000000000000000000000000000000000000815260040161041290610b2c565b60405180910390fd5b6104248161054d565b15610464576040517f08c379a000000000000000000000000000000000000000000000000000000000815260040161045b90610b98565b60405180910390fd5b816002600083815260200190815260200160002060006101000a81548173ffffffffffffffffffffffffffffffffffffffff021916908373ffffffffffffffffffffffffffffffffffffffff1602179055506001600360008473ffffffffffffffffffffffffffffffffffffffff1673ffffffffffffffffffffffffffffffffffffffff16815260200190815260200160002060008282546105069190610bb8565b925050819055507fddf252ad1be2c89b69c2b068fc378daa952ba7f163c4a11628f55a4df523b3ef6000838360405161054193929190610c5e565b60405180910390a15050565b6000806002600084815260200190815260200160002060009054906101000a900473ffffffffffffffffffffffffffffffffffffffff169050600073ffffffffffffffffffffffffffffffffffffffff168173ffffffffffffffffffffffffffffffffffffffff161415915050919050565b8280546105cb90610941565b90600052602060002090601f0160209004810192826105ed5760008555610634565b82601f1061060657805160ff1916838001178555610634565b82800160010185558215610634579182015b82811115610633578251825591602001919060010190610618565b5b5090506106419190610645565b5090565b5b8082111561065e576000816000905550600101610646565b5090565b600081519050919050565b600082825260208201905092915050565b60005b8381101561069c578082015181840152602081019050610681565b838111156106ab576000848401525b50505050565b6000601f19601f8301169050919050565b60006106cd82610662565b6106d7818561066d565b93506106e781856020860161067e565b6106f0816106b1565b840191505092915050565b6000602082019050818103600083015261071581846106c2565b905092915050565b6000604051905090565b600080fd5b600080fd5b6000819050919050565b61074481610731565b811461074f57600080fd5b50565b6000813590506107618161073b565b92915050565b60006020828403121561077d5761077c610727565b5b600061078b84828501610752565b91505092915050565b600080fd5b600080fd5b7f4e487b7100000000000000000000000000000000000000000000000000000000600052604160045260246000fd5b6107d6826106b1565b810181811067ffffffffffffffff821117156107f5576107f461079e565b5b80604052505050565b600061080861071d565b905061081482826107cd565b919050565b600067ffffffffffffffff8211156108345761083361079e565b5b61083d826106b1565b9050602081019050919050565b82818337600083830152505050565b600061086c61086784610819565b6107fe565b90508281526020810184848401111561088857610887610799565b5b61089384828561084a565b509392505050565b600082601f8301126108b0576108af610794565b5b81356108c0848260208601610859565b91505092915050565b6000602082840312156108df576108de610727565b5b600082013567ffffffffffffffff8111156108fd576108fc61072c565b5b6109098482850161089b565b91505092915050565b7f4e487b7100000000000000000000000000000000000000000000000000000000600052602260045260246000fd5b6000600282049050600182168061095957607f821691505b60208210810361096c5761096b610912565b5b50919050565b600081905092915050565b600061098882610662565b6109928185610972565b93506109a281856020860161067e565b80840191505092915050565b60006109ba828461097d565b915081905092915050565b7f4572726f72202d206b727970746f4269726420616c726561647920657869737460008201527f7300000000000000000000000000000000000000000000000000000000000000602082015250565b6000610a2160218361066d565b9150610a2c826109c5565b604082019050919050565b60006020820190508181036000830152610a5081610a14565b9050919050565b7f4e487b7100000000000000000000000000000000000000000000000000000000600052601160045260246000fd5b6000610a9182610731565b9150610a9c83610731565b925082821015610aaf57610aae610a57565b5b828203905092915050565b7f4552433732313a206d696e74696e6720746f20746865207a65726f206164647260008201527f6573730000000000000000000000000000000000000000000000000000000000602082015250565b6000610b1660238361066d565b9150610b2182610aba565b604082019050919050565b60006020820190508181036000830152610b4581610b09565b9050919050565b7f4552433732313a20746f6b656e20616c7265616479206d696e74656400000000600082015250565b6000610b82601c8361066d565b9150610b8d82610b4c565b602082019050919050565b60006020820190508181036000830152610bb181610b75565b9050919050565b6000610bc382610731565b9150610bce83610731565b9250827fffffffffffffffffffffffffffffffffffffffffffffffffffffffffffffffff03821115610c0357610c02610a57565b5b828201905092915050565b600073ffffffffffffffffffffffffffffffffffffffff82169050919050565b6000610c3982610c0e565b9050919050565b610c4981610c2e565b82525050565b610c5881610731565b82525050565b6000606082019050610c736000830186610c40565b610c806020830185610c40565b610c8d6040830184610c4f565b94935050505056fea2646970667358221220fe17dc4a340d924b9f0f2e5f9f3d8dab16df923a0b41e60d245ce2757e8ba01e64736f6c634300080d0033",
  "immutableReferences": {},
  "source": "// SPDX-License-Identifier: MIT\npragma solidity ^0.8.0;\nimport \"./ERC721Connector.sol\";\n\ncontract KryptoBird is ERC721Connector {\n    string[] public KryptoBirdz;\n\n    mapping(string => bool) _kryptoBirdzExists;\n\n    function mint(string memory _kryptoBird) public {\n        require(\n            !_kryptoBirdzExists[_kryptoBird],\n            \"Error - kryptoBird already exists\"\n        );\n        KryptoBirdz.push(_kryptoBird);\n        uint256 _id = KryptoBirdz.length - 1;\n\n        _mint(msg.sender, _id);\n        _kryptoBirdzExists[_kryptoBird] = true;\n    }\n\n    constructor() ERC721Connector(\"KryptoBird\", \"KBIRDZ\") {}\n}\n",
  "sourcePath": "/Users/hawk2/Desktop/Web Projects/React/nft/nft-marketplace/src/contracts/KryptoBirdz.sol",
  "compiler": {
    "name": "solc",
    "version": "0.8.13+commit.abaa5c0e.Emscripten.clang"
  },
  "schemaVersion": "3.4.7",
  "updatedAt": "2022-05-07T23:04:40.496Z",
  "networkType": "ethereum",
  "devdoc": {
    "kind": "dev",
    "methods": {},
    "version": 1
  },
  "userdoc": {
    "kind": "user",
    "methods": {},
    "version": 1
  }
}